:020000040800F2
:100000000000022041DE000891DE000891DE0008B9
:1000100091DE000891DE000891DE0008000000007B
:1000200000000000000000000000000091DE000859
:1000300091DE00080000000091DE000891DE00085B
:1000400091DE000891DE000891DE000891DE0008D4
:1000500091DE000891DE000891DE000891DE0008C4
:1000600091DE000891DE000891DE000891DE0008B4
:1000700091DE000891DE000891DE000891DE0008A4
:1000800091DE000891DE000891DE000891DE000894
:1000900091DE000891DE000891DE0008F52D0008D1
:1000A00091DE000891DE000891DE000891DE000874
:1000B000C598000891DE000891DE000891DE000876
:1000C00091DE000891DE000891DE00089925000805
:1000D00091DE000891DE000891DE00080D5700084F
:1000E00091DE000891DE000891DE0008752E000800
:1000F00091DE000891DE000891DE000891DE000824
:1001000091DE000891DE000815CE000891DE00089F
:100110004557000891DE0008D19B000891DE0008D9
:1001200091DE000891DE000891DE000891DE0008F3
:1001300091DE000891DE000891DE000891DE0008E3
:1001400091DE000891DE000891DE000891DE0008D3
:1001500091DE000891DE000891DE000891DE0008C3
:1001600091DE000891DE000891DE000891DE0008B3
:1001700091DE000891DE000891DE0008000000001A
:1001800091DE000891DE0008044B05481B1A062B7F
:1001900002D9044B03B11847704700BFE3080020A1
:1001A000E00800200000000005490648091A8910EF
:1001B00001EBD171491002D0034B03B118477047CE
:1001C000E0080020E00800200000000010B5064C08
:1001D000237843B9FFF7D8FF044B13B10448AFF3BA
:1001E00000800123237010BDE00800200000000003
:1001F000B050010808B5084B1BB108490848AFF3D7
:1002000000800848036813B9BDE80840CCE7064BF6
:10021000002BF9D09847F7E700000000E408002021
:10022000B0500108DC0800200000000010B586B0C6
:100230008023019300230293074C01A9204601F07B
:10024000B1FF082301930123029301A9204601F085
:10025000A9FF06B010BD00BF000002400822014BFC
:100260001A837047000002402DE9F04104460D4614
:10027000174609F0DBFB8046C5F307462AE02368F2
:100280005A6912F4806F12D01A6842F400721A6030
:1002900023686FF480625A61042384F836300120A9
:1002A00084F83500002384F83430BDE8F081B7F1DC
:1002B000FF3F0FD02FB109F0B9FBC8EB0000874218
:1002C00008D2012384F83530002384F83430032029
:1002D000BDE8F081012E23680CBF5B699B69DB439D
:1002E0009BB22B4214BF01230023002BC7D1002057
:1002F000BDE8F0812DE9F04106460C4690461D46CA
:1003000009F094FB0746B8F1000F12D036E0B5F1C2
:10031000FF3F10D025B109F089FBC01B85420AD2EE
:10032000012386F83530002386F834300320BDE8F9
:10033000F081C4F30748B8F1010F33680CBF5B6963
:100340009B69DB439BB2234214BF01230023002B94
:10035000DDD10020BDE8F081B5F1FF3F10D025B11F
:1003600009F064FBC01B85420AD2012386F83530B0
:10037000002386F834300320BDE8F081C4F3074839
:10038000B8F1010F33680CBF5B699B69DB439BB21B
:1003900023420CBF01230023002BDDD10020BDE848
:1003A000F08100BF70B504460E461546026813681A
:1003B00043F4807313602B4600224FF00111FFF7C6
:1003C00099FF00282FD12369B3F5804F04D123680A
:1003D00006F0FE061E6117E02268F31103F0060323
:1003E00043F0F00313612A4610492046FFF73CFF13
:1003F00038B194F83630DBB2042B0CBF0123032351
:1004000012E02368F6B21E612A4609492046FFF72A
:100410002BFF034640B194F83630DBB2042B0CBFFF
:100420000123032300E00323184670BD08000100E8
:1004300002000100F8B504460E461546026813682E
:1004400043F4806313600268136843F4807313609D
:100450002B4600224FF00111FFF74CFF002851D12D
:100460002369B3F5804F05D1236846F00106F6B243
:100470001E6138E02368F71107F0060747F0F00225
:100480001A612A4622492046FFF7EEFE38B194F859
:100490003630DBB2042B0CBF0123032335E0236885
:1004A000F6B21E612A461B492046FFF7DDFE38B131
:1004B00094F83630DBB2042B0CBF0123032324E075
:1004C00023685A699A691A6842F480721A602B4646
:1004D00000224FF001112046FFF70CFFA0B923685E
:1004E00047F0F1071F612A460A492046FFF7BCFE84
:1004F000034650B194F83630DBB2042B0CBF012315
:10050000032302E0032300E003231846F8BD00BFE5
:100510000800010002000100F8B504460D46164629
:100520001F460268136843F480731360069B002221
:100530004FF00111FFF7DEFE002831D1236805F0EE
:10054000FE051D61069A1A492046FFF78DFE38B157
:1005500094F83630DBB2042B0CBF0123032324E0D4
:1005600023685A699B69069B002212492046FFF7BF
:10057000C1FE0346B0B9012F03D12268F6B216615D
:1005800013E02368320A1A61069B002209492046BB
:10059000FFF7B0FE034638B92268F6B2166104E0F0
:1005A000032302E0032300E003231846F8BD00BF45
:1005B0000200010080000100F8B504460D46164611
:1005C0001F460268136843F480631360026813686F
:1005D00043F480731360069B00224FF00111FFF774
:1005E00089FE002857D12368EDB205F0FE021A619A
:1005F000069A2E492046FFF737FE38B194F8363078
:10060000DBB2042B0CBF012303234DE023685A699E
:100610009B69069B002226492046FFF76BFE0028B7
:100620003BD1012F03D12368F6B21E610CE0236891
:10063000320A1A61069B00221D492046FFF75AFE26
:1006400068BB2368F6B21E61069B0022184920464B
:10065000FFF750FE28BB2268136843F480731360D1
:10066000069B00224FF001112046FFF743FED0B950
:10067000236845F001051D61069A0C492046FFF7E5
:10068000F3FD034680B194F83630DBB2042B0CBF87
:100690000123032308E0032306E0032304E00323EC
:1006A00002E0032300E003231846F8BD0200010026
:1006B00080000100704700BF002870D038B50446A4
:1006C00090F8353013F0FF0F01D1FFF7F3FF02234D
:1006D00084F835302268136823F0010313600BF0AF
:1006E00099FF304BA3FB00239B0C226853602168C9
:1006F00065682D4A954201D8013308E04FF496729F
:1007000002FB03F3294AA2FB03239B0901330B627B
:100710002268636824498B4208D85B00B0FBF3F081
:10072000C0F30B03032B98BF04201CE0A16839B968
:1007300003EB4303B0FBF3F0C0F30B0383B109E019
:1007400003EB830303EB8303B0FBF3F0C0F30B0372
:1007500043B102E040F4004005E040F4404002E0D4
:10076000012000E00120D0612268E169236A0B4387
:10077000136022682169E3680B4393602268616912
:10078000A3690B43D3602268136843F0010313602D
:10079000002084F83600012384F8353038BD01206C
:1007A000704700BF83DE1B43A0860100D34D62105B
:1007B000704700BF98B110B50446022380F8353069
:1007C0000268136823F001031360FFF7F1FF0020B4
:1007D00084F8360084F8350084F8340010BD012018
:1007E000704700BF2DE9F0411D4690F83530DBB26F
:1007F000012B58D104461646002A56D0002D56D05B
:1008000003689B6913F0020F53D190F83430012B29
:1008100051D0012380F83430122380F83530002382
:1008200080F83630069AFFF7BDFD58B194F836309F
:10083000DBB2042B4FF0000384F834300CBF0123EB
:1008400003233DE023685A699B69DFF87C80002719
:10085000069B3A4641462046FFF74CFD68BB23689D
:1008600032781A616B1E9BB22268516911F0040F35
:1008700002D101361D4605E033B173781361023DA4
:10088000ADB20236002DE3D1069B00220E49204670
:10089000FFF730FD034690B9012284F8352000228D
:1008A00084F834200CE002230AE0012308E001234D
:1008B00006E0022304E0022302E0032300E0032316
:1008C0001846BDE8F08100BF800001002DE9F84323
:1008D0001D4690F83530DBB2012B40F0CE80044647
:1008E0001646002A00F0CB80002D00F0CA8090F858
:1008F0003430012B00F0C780012380F834302223EC
:1009000080F83530002380F83630089AFFF792FDE2
:1009100058B194F83630DBB2042B4FF0000384F862
:1009200034300CBF01230323BAE0012D0CD122681F
:10093000136823F48063136023685A699A691A68FC
:1009400042F400721A6020E0022D0DD12268136873
:1009500023F4806313602268136843F40063136018
:1009600023685A699B691EE02268136843F4806318
:10097000136023685A699B69DFF82C910027DFF820
:100980002C81032D4AD8012D0BD1089B002246490A
:100990002046FFF7AFFC002877D123681B6933702E
:1009A00057E0022D13D1089B002240492046FFF753
:1009B000A1FC00286BD12268136843F40073136014
:1009C00023681B69337023681B69737041E0089BBF
:1009D0003A4641462046FFF78DFC002859D122684F
:1009E000136823F48063136023681B693370089BCA
:1009F0003A4641462046FFF77DFC00284BD122684D
:100A0000136843F40073136023681B6973702368D1
:100A10001B69B370033DADB2033618E0089B3A463C
:100A200049462046FFF766FC002836D123681B693B
:100A3000337023685A6912F0040F03D10136013D67
:100A4000ADB204E01B697370023DADB20236002DF9
:100A500097D12268136823F400631360089B012276
:100A600013492046FFF746FC0346C0B9012284F82B
:100A70003520002284F8342012E0022310E0012304
:100A80000EE001230CE002230AE0032308E0032325
:100A900006E0032304E0032302E0032300E0032332
:100AA0001846BDE8F88300BF4000010004000100C3
:100AB000020010002DE9F8431F4690F83530DBB2F4
:100AC000012B72D104460D46164600296FD0002A2C
:100AD0006FD003689A6912F0020F6CD190F834203D
:100AE000012A6AD0012280F83420122280F83520B1
:100AF000002280F83620196841F4806119603B4675
:100B00003849FFF7F7FB002859D123685A699B69D8
:100B10002369B3F5404F5CD13B4600223149204662
:100B2000FFF7E8FB00284CD123685A699B6950E025
:100B30003B46424649462046FFF7DCFB002842D1AF
:100B400023682A781A61731E9BB22268516911F0DA
:100B5000040F02D101351E4605E033B16B781361F5
:100B6000023EB6B20235002EE2D13B4600224FF4DF
:100B700082312046FFF7BEFB38BB23686FF48062EA
:100B80005A612268136823F4806313603B46012294
:100B900015492046FFF7AEFB0346C0B9012284F891
:100BA0003520002284F8342018E0022316E00123C7
:100BB00014E0012312E0022310E002230EE00323DD
:100BC0000CE003230AE0032308E0032306E00323E9
:100BD00004E0DFF818904FF00008A9E71846BDE8D8
:100BE000F88300BF02000100020010008000010035
:100BF0002DE9F8431F4690F83530DBB2012B67D161
:100C000004460D461646002964D0002A64D00368C5
:100C10009A6912F0020F61D190F83420012A5FD056
:100C2000012280F83420222280F83520002280F82A
:100C30003620196841F4806119603B462E49FFF760
:100C400059FB00284ED123685A699B69DFF8B4909C
:100C50004FF000083B46424649462046FFF74AFB14
:100C6000002841D123681B692B70731E9BB2226838
:100C7000516911F0040F02D101351E4605E033B170
:100C800013696B70023EB6B20235002EE2D13B46CC
:100C900000221A492046FFF72DFB38BB23685A690A
:100CA0001A6842F001021A602268136823F4806314
:100CB00013603B46012212492046FFF71BFB034607
:100CC000B0B9012284F83520002284F8342010E0E5
:100CD00002230EE001230CE001230AE0022308E0D6
:100CE000022306E0032304E0032302E0032300E0E1
:100CF00003231846BDE8F88302000100100001003C
:100D0000020010004000010010B590F83540E4B238
:100D1000012C36D1002A36D0002B36D00468A469C5
:100D200014F0020F33D190F83440012C31D0044636
:100D3000012084F83400122084F83500002084F863
:100D4000360062622385638523222046FFF72AFB53
:100D5000034658B194F83630DBB2042B4FF0000351
:100D600084F834300CBF0123032313E02268516957
:100D70009169002184F83410516841F4E0615160B8
:100D800008E0022306E0012304E0012302E002233D
:100D900000E00223184610BD10B590F83540E4B2CB
:100DA000012C5FD1002A5FD0002B5FD00468A469BA
:100DB00014F0020F5CD190F83440012C5AD0044654
:100DC000012084F83400222084F83500002084F8C3
:100DD000360062622385638523222046FFF72AFBC3
:100DE000034658B194F83630DBB2042B4FF00003C1
:100DF00084F834300CBF012303233CE0628D92B2AF
:100E0000012A0CD121680A6822F480620A602268F3
:100E100051699169116841F40071116019E0628DA6
:100E200092B2022A0DD121680A6822F480620A6017
:100E300021680A6842F400620A6022685169926976
:100E400007E021680A6842F480620A6022685169FA
:100E50009269002284F8342021684A6842F4E062F2
:100E60004A6008E0022306E0012304E0012302E0D7
:100E7000022300E00223184610BD00BF90F8353071
:100E8000DBB2012B24D129B332B310B40468A369B7
:100E900013F0020F22D190F83430012B20D001231F
:100EA00080F83430122380F83530002380F8363053
:100EB000416202854285226842F48062226080F8A5
:100EC000343001684A6842F4E0624A60184608E03B
:100ED000022070470120704701207047022000E087
:100EE00002205DF8044B704790F83530DBB2012BDF
:100EF00024D129B332B310B40468A36913F0020FEC
:100F000022D190F83430012B20D0012380F83430E6
:100F1000222380F83530002380F836304162028584
:100F20004285226842F48062226080F83430016891
:100F30004A6842F4E0624A60184608E002207047BE
:100F40000120704701207047022000E002205DF878
:100F5000044B704770B590F83540E4B2012C46D18F
:100F6000002A46D0002B46D00468A46914F0020F72
:100F700043D190F83440012C41D014460D4606462A
:100F8000012280F83420122280F83520002280F8D7
:100F90003620446203854385C26A1A49D163C26A16
:100FA00019499164026810322146C06A05F030F98F
:100FB000232229463046FFF7F5F9034658B196F843
:100FC0003630DBB2042B4FF0000386F834300CBF10
:100FD0000123032314E031684A6842F400624A6046
:100FE000326851699269002286F8342008E00223B1
:100FF00006E0012304E0012302E0022300E00223D3
:10100000184670BDC11D0008951D000870B590F808
:101010003540E4B2012C53D1002A53D0002B53D0D9
:101020000468A46914F0020F50D190F83440012CE8
:101030004ED01C460D460646012380F8343022234C
:1010400080F83530002380F83630426204854485CC
:10105000036B2149D963036B2049996401682346D6
:101060001031006B05F0D4F8232229463046FFF7F3
:10107000E1F9024658B196F83630DBB2042B4FF056
:10108000000386F834300CBF0122032221E0012C3A
:1010900005D131680B6823F480630B6004E031688C
:1010A0004B6843F480534B6031684B6843F40063F2
:1010B0004B60336859699B69002386F8343008E037
:1010C000022206E0012204E0012202E0022200E006
:1010D0000222104670BD00BF391E0008951D000891
:1010E00038B590F83540E4B2012C52D1002952D0E5
:1010F000002A52D003689B6913F0020F4FD190F879
:101100003430012B4DD013460446012280F83420A0
:10111000122280F83520002580F836504162038580
:101120004385C26A2248D063E26A224890642268FA
:101130001032E06A05F06CF82268536843F40063EB
:1011400053602268136843F48063136042F21073A3
:101150002A4619492046FFF7CDF8054618BB2369F2
:10116000B3F5804F03D123685A699B690DE023686A
:101170005A699B6942F2107300220F492046FFF71B
:10118000B9F890B923685A699B69002384F8343010
:101190000CE002250AE0012508E0012506E0022511
:1011A00004E0022502E0032500E00325284638BDBF
:1011B000A91E0008951D00080200010038B590F82E
:1011C0003540E4B2012C3FD100293FD0002A3FD066
:1011D00003689B6913F0020F3CD190F83430012B67
:1011E0003AD013460A460446012180F834102221E1
:1011F00080F83510002580F836504262038543851B
:10120000016B1848C863216B174888642168103146
:10121000206B04F0FDFF2268536843F400635360C1
:101220002268136843F48063136042F210732A4605
:101230000E492046FFF75EF8034678B922685169E7
:10124000926984F834500AE0022308E0012306E0A2
:10125000012304E0022302E0022300E003231846F6
:1012600038BD00BF291F0008951D000802000100BD
:10127000F0B583B0BDF8245090F83540E4B2012CAD
:1012800069D1089C002C68D0002D68D00468A4693E
:1012900014F0020F65D190F83440012C63D004465D
:1012A000012084F83400322084F83500002084F8CE
:1012B00036000A9800902046FFF72EF958B194F8AE
:1012C0003630DBB2042B4FF0000384F834300CBF0F
:1012D000012303234EE0294F00260A9B324639465C
:1012E0002046FFF707F800283FD12368089A1278B4
:1012F0001A616B1E9BB22268516911F0040F04D170
:10130000089A013208921D4608E04BB1089B5B78B1
:101310001361023DADB2089B02330893002DDCD16E
:101320000A9B002215492046FEF7E4FFF8B922681F
:10133000136843F4007313600A9B0122104920468E
:10134000FEF7D8FF0346A0B9012284F83520002219
:1013500084F834200EE002230CE001230AE001238C
:1013600008E0022306E0022304E0032302E0032353
:1013700000E00323184603B0F0BD00BF8000010069
:10138000020010002DE9F04182B0BDF8245090F821
:101390003540E4B2012C40F0DD80089C002C00F0C8
:1013A000DB80002D00F0DA800468A46914F0020FDD
:1013B00040F0D68090F83440012C00F0D3800446F1
:1013C000012084F83400422084F83500002084F89D
:1013D00036000A9800902046FFF7EEF858B194F8CE
:1013E0003630DBB2042B4FF0000384F834300CBFEE
:1013F00001230323C3E0012D0CD12268136823F4D9
:101400008063136023685A699A691A6842F400720B
:101410001A601AE0022D0DD12268136823F480634C
:1014200013602268136843F40063136023685A69E9
:101430009B691AE023685A699B69DFF8508100268E
:10144000514F032D51D8012D0DD10A9B00224F4938
:101450002046FEF74FFF002840F0868023681B6976
:10146000089A137062E0022D14D10A9B00224649AB
:101470002046FEF73FFF002878D12268136843F426
:101480000073136023681B69089A137023681B6933
:1014900053704BE00A9B324639462046FEF72AFF3E
:1014A000002865D12268136823F4806313602368E1
:1014B0001B69089A13700A9B324639462046FEF78C
:1014C00019FF002856D12268136843F40073136093
:1014D00023681B69089A537023681B699370033D46
:1014E000ADB21346033308931EE00A9B32464146D1
:1014F0002046FEF7FFFE00283ED123681B69089AAC
:10150000137023685A6912F0040F05D1089B013348
:101510000893013DADB207E01B69089A5370023D84
:10152000ADB2134602330893002D8AD122681368A6
:1015300023F4006313600A9B012215492046FEF73D
:10154000D9FE0346D0B9012284F83520002284F860
:10155000342014E0022312E0012310E001230EE006
:1015600002230CE002230AE0032308E0032306E041
:10157000032304E0032302E0032300E003231846CF
:1015800002B0BDE8F08100BF04000100400001008E
:101590000200100030B583B0BDF81C5090F8354003
:1015A000E4B2012C37D1069C002C36D0002D36D069
:1015B0000468A46914F0020F33D190F83440012C70
:1015C00031D00446012084F83400322084F83500FC
:1015D000002084F836000698606225856585232002
:1015E00000902046FEF798FF034658B194F8363035
:1015F000DBB2042B4FF0000384F834300CBF01231E
:10160000032311E0002284F8342021684A6842F460
:10161000E0624A6008E0022306E0012304E00123BF
:1016200002E0022300E00223184603B030BD00BFF1
:1016300030B583B0BDF81C5090F83540E4B2012CB1
:1016400062D1069C002C61D0002D61D00468A46991
:1016500014F0020F5ED190F83440012C5CD00446A7
:10166000012084F83400422084F83500002084F8FA
:101670003600069860622585658523200090204607
:10168000FEF79AFF034658B194F83630DBB2042BCC
:101690004FF0000384F834300CBF012303233CE0F7
:1016A000628D92B2012A0CD121680A6822F480620C
:1016B0000A60226851699169116841F400711160F2
:1016C00019E0628D92B2022A0DD121680A6822F4D3
:1016D00080620A6021680A6842F400620A60226837
:1016E0005169926907E021680A6842F480620A60E1
:1016F000226851699269002284F8342021684A687E
:1017000042F4E0624A6008E0022306E0012304E0BC
:10171000012302E0022300E00223184603B030BD9B
:101720002DE9F04182B0BDF8245090F83540E4B284
:10173000012C4BD1089C002C4AD0002D4AD00468C3
:10174000A46914F0020F47D190F83440012C45D021
:101750001F4616460C468046012380F8343032235B
:1017600080F83530002380F83630089B43620585C9
:101770004585C36A1C4ADA63C36A1C4A9A640268D4
:101780002B4610320899C06A04F042FD23230093CF
:101790003B46324621464046FEF7BEFE034658B160
:1017A00098F83630DBB2042B4FF0000388F8343061
:1017B0000CBF0123032312E0D8F800104A6842F45A
:1017C00000624A60002288F8342008E0022306E024
:1017D000012304E0012302E0022300E00223184673
:1017E00002B0BDE8F08100BFAD1F0008951D0008E4
:1017F0002DE9F04182B0BDF8245090F83540E4B2B4
:10180000012C5ED1089C002C5DD0002D5DD00468B9
:10181000A46914F0020F5AD190F83440012C58D02A
:101820001F4616460C468046012380F8343042237A
:1018300080F83530002380F83630089B43620585F8
:101840004585036B254ADA63036B254A9A64016870
:101850002B46089A1031006B04F0DAFC2323009326
:101860003B46324621464046FEF7A6FE034658B1A7
:1018700098F83630DBB2042B4FF0000388F8343090
:101880000CBF0123032325E0012D06D1D8F8001059
:101890000A6822F480620A6005E0D8F800104A68FD
:1018A00042F480524A60D8F800104A6842F400625C
:1018B0004A60D8F8002051699269002288F83420E3
:1018C00008E0022306E0012304E0012302E00223F2
:1018D00000E00223184602B0BDE8F0812520000890
:1018E000951D00082DE9F84F90F83560F6B2012EED
:1018F00040F08D800468A46914F0020F40F08980E4
:1019000090F83440012C00F086801D469046044635
:10191000012380F83430022380F835304FF0000A7C
:1019200080F836A001F0FE07DFF800B122681368E6
:1019300043F4807313602B4600224FF001112046C0
:10194000FEF7D8FC002868D123681F6108F06EF804
:101950008146236859695B6903F4806394F83520F4
:10196000D2B211F0020F1AD1CBB9032A17D0032635
:101970002DB108F05BF8C9EB0000854201D284F874
:101980003560236859695B6903F4806394F83520F6
:10199000D2B211F0020F02D10BB9032AE8D1012310
:1019A00084F8353023685A6912F0020F15D01A688E
:1019B00042F400721A6023685A699B692B4601221F
:1019C0001A492046FEF796FC034640BB012284F8E4
:1019D0003520002284F8342024E01A6842F4007292
:1019E0001A6023686FF480625A612B4601225946BF
:1019F0002046FEF77FFCA0B90AF1010AC24595D343
:101A0000012384F83530002284F834200AE00223D0
:101A100008E0022306E0022304E0032302E003239C
:101A200000E003231846BDE8F88F00BF0200100055
:101A3000704700BF704700BF704700BF704700BFCE
:101A4000704700BF704700BF38B5044603689A6905
:101A500012F0010F00F00D819A6912F0040F59D0B5
:101A600059695D685A6902F00402586811F0800FE4
:101A700017D015F4806F14D0B2B9626A511C61623C
:101A800012781A61638D013B9BB26385638D9BB2B3
:101A9000002B40F07B812268536823F480635360FD
:101AA00038BD002A00F0728110F4007F00F06E81D2
:101AB000628D92B24AB1626A511C616212781A61F7
:101AC000638D013B9BB2638538BD5A6822F4E062A6
:101AD0005A602268136843F40073136023230122C1
:101AE000A1492046FEF706FC002840F04F8194F8FB
:101AF0003530DBB2322B06D1012384F83530204655
:101B0000FFF79EFF38BD012384F835302046FFF7EC
:101B10008FFF38BD59695D685A6902F00402586840
:101B200011F0400F44D015F4806F41D0002A42D10B
:101B3000628D92B2032A09D9626A511C61621B69E3
:101B40001370638D013B9BB2638538BD023A012A55
:101B500004D85A6822F480625A6038BD5A6822F468
:101B6000E0625A60636A5A1C6262226812691A70E3
:101B7000638D013B9BB26385232301227A49204672
:101B8000FEF7B8FB002840F0018194F83530DBB255
:101B9000422B06D1012384F835302046FFF752FF4F
:101BA00038BD012384F835302046FFF743FF38BDA8
:101BB000002A00F0EB8010F4007F00F0E780628DD7
:101BC00092B2032A0ED11A6822F480621A60636A04
:101BD0005A1C6262226812691A70638D013B9BB2C3
:101BE000638538BD628D92B2022A38D11A6842F4F8
:101BF00000721A60636A5A1C6262226812691A7063
:101C0000638D013B9BB26385636A5A1C62622268E2
:101C100012691A70638D013B9BB263852268536819
:101C200023F440735360232301224F492046FEF7DB
:101C300061FB002840F0AA8094F83530DBB2422BDB
:101C400006D1012384F835302046FFF7FBFE38BD6E
:101C5000012384F835302046FFF7ECFE38BD626A78
:101C6000511C61621B691370638D013B9BB26385DC
:101C700038BD58695A6802F400715D699A6902F0CA
:101C8000040210F0020F03D021B35A699B6938BDDA
:101C900015F0100F1ED0E9B15A6822F4E0625A60C4
:101CA00023685A691A6842F001021A6022681368B0
:101CB00023F480631360232301222B492046FEF77F
:101CC00019FB002862D1012384F835302046FFF744
:101CD000B5FE38BD002A2DD059695D685A6902F0F9
:101CE0000402586811F0800F11D015F4806F0ED0E7
:101CF0007AB9628D92B2002A48D0626A511C616240
:101D000012781A61638D013B9BB2638538BD002A4E
:101D10003CD010F4007F39D0628D92B2002A35D0C9
:101D2000626A511C616212781A61638D013B9BB239
:101D3000638538BD59695D685A6902F004025868C4
:101D400011F0400F12D015F4806F0FD07AB9628D68
:101D500092B2DAB1626A511C61621B691370638DC1
:101D6000013B9BB2638538BD0200100072B110F4D4
:101D7000007F0BD0628D92B242B1626A511C6162E7
:101D80001B691370638D013B9BB2638538BD00BF37
:101D9000704700BF08B5806B0268136823F4806346
:101DA000136000234385012380F8353090F83630E6
:101DB00043F0100380F83630FFF7EAFF08BD00BF9C
:101DC00010B5846B2323002219492046FEF792FAAE
:101DD00028B194F8363043F0200384F83630226876
:101DE000136843F4007313602268536823F400639C
:101DF000536000236385232301220E492046FEF70A
:101E000079FA28B194F8363043F0200384F836305C
:101E1000012384F8353094F8363013F0FF0F03D0E7
:101E20002046FFF7B5FF10BD2046FFF701FE10BDAD
:101E3000040001000200100010B5846B22681368D2
:101E400043F4007313602268536823F48053536093
:101E50002268136823F4806313602268536823F4B4
:101E60000063536000236385232301220D4920462C
:101E7000FEF740FA28B194F8363043F0200384F896
:101E80003630012384F8353094F8363013F0FF0FE4
:101E900003D02046FFF77CFF10BD2046FFF7CAFDA8
:101EA00010BD00BF0200100010B5846B2323002278
:101EB0004FF482312046FEF71DFA28B194F83630EF
:101EC00043F0200384F8363023686FF480625A614F
:101ED0002268136823F4806313602268536823F434
:101EE0000063536000236385232301220D492046AC
:101EF000FEF700FA28B194F8363043F0200384F856
:101F00003630012384F8353094F8363013F0FF0F63
:101F100003D02046FFF73CFF10BD2046FFF78CFDA5
:101F200010BD00BF0200100010B5846B23230022F7
:101F30001C492046FEF7DEF928B194F8363043F00C
:101F4000200384F8363023685A691A6842F0010287
:101F50001A602268136823F4806313602268536850
:101F600023F40063536000236385232301220E4979
:101F70002046FEF7BFF928B194F8363043F020032D
:101F800084F83630012384F8353094F8363013F075
:101F9000FF0F03D02046FFF7FBFE10BD2046FFF7E2
:101FA0004DFD10BD100001000200100010B5846B43
:101FB0002323002219492046FEF79CF928B194F802
:101FC000363043F0200384F836302268136843F437
:101FD000007313602268536823F400635360002386
:101FE0006385232301220E492046FEF783F928B199
:101FF00094F8363043F0200384F83630012384F817
:10200000353094F8363013F0FF0F03D02046FFF739
:10201000BFFE10BD2046FFF713FD10BD04000100F8
:102020000200100010B5846B2268136843F400733B
:1020300013602268536823F4805353602268136846
:1020400023F4806313602268536823F400635360B1
:1020500000236385232301220D492046FEF74AF918
:1020600028B194F8363043F0200384F83630012349
:1020700084F8353094F8363013F0FF0F03D0204643
:10208000FFF786FE10BD2046FFF7DCFC10BD00BF49
:102090000200100010B5044603685A69596812F42A
:1020A000807F0BD011F4807F08D090F8362042F06A
:1020B000010280F836206FF480725A6123685A69F1
:1020C000596812F4007F0BD011F4807F08D094F887
:1020D000362042F0020284F836206FF400725A6112
:1020E00023685A69596812F4806F32D011F4807FE6
:1020F0002FD09869628D92B294F83510C9B210F061
:10210000010F1DD1E2B912291AD15A6822F4E062F6
:102110005A6023686FF480625A612268136823F45E
:10212000806313602323012219492046FEF7E2F859
:1021300078B9012384F835302046FFF77DFC08E0AC
:1021400094F8362042F0040284F836206FF480625E
:102150005A6123685A69596812F4006F0BD011F460
:10216000807F08D094F8362042F0080284F83620A8
:102170006FF400625A6194F8363013F0FF0F05D007
:10218000012384F835302046FFF702FE10BD00BF62
:102190000200100090F83500704700BF90F836003C
:1021A000704700BF2DE9F04F83B00024704FDFF877
:1021B000CCE1704EDFF8C8C1DFF8C891DFF8C8A1E4
:1021C00080460123A3400A6833EA020240F0C98036
:1021D0004A6822F01002022A11D1E50808EB8505B1
:1021E000D5F820B004F0070292000F2090402BEAAF
:1021F000000B086900FA02F242EA0B022A62D8F8E0
:10220000000065000322AA40D24300EA020B48689E
:1022100000F00300A84040EA0B00C8F8000048683E
:1022200020F010000138012815D8D8F8080002EA7B
:10223000000BC868A84040EA0B00C8F80800D8F8AE
:10224000040020EA030B4868C0F30010A04040EAF5
:102250000B00C8F80400D8F80C000240886800FAA7
:1022600005F52A43C8F80C204A6812F0805F78D040
:102270007A6C42F480427A6424F0030202F18042D4
:1022800002F59C32D2F808B004F00305AD000F202F
:10229000A8402BEA00000190F04521D0E04522D073
:1022A000C84523D0D04524D03348804524D000F5FC
:1022B0008060804523D000F58060804522D0DFF823
:1022C000CCB0D84521D00BF5806BD84520D00BF58C
:1022D000806BD8450CBF4FF0090B4FF00A0B19E08B
:1022E0004FF0000B16E04FF0010B13E04FF0020B24
:1022F00010E04FF0030B0DE04FF0040B0AE04FF03D
:10230000050B07E04FF0060B04E04FF0070B01E070
:102310004FF0080B0BFA05F50198054395603268FC
:10232000DD43486810F4803F0CBF2A401A433260F6
:102330007268486810F4003F0CBF2A401A4372606C
:10234000B268486810F4801F0CBF2A401A43B2607C
:10235000F268486810F4001F0CBF05EA020313433B
:10236000F3600134102C7FF42CAF03B0BDE8F08F84
:1023700000380240003C01400010024000000240D2
:102380000004024000080240000C0240001C024011
:102390002DE9F043002301274FF0030C4FF00F0EFF
:1023A000234C07FA03F232EA01053BD106685D00CF
:1023B0000CFA05F5ED432E4006604FEAD30800EB1A
:1023C0008808D8F8209003F00706B6000EFA06F643
:1023D00029EA0606C8F8206086682E4086604668AE
:1023E000D24316404660C6683540C56023F00305F9
:1023F00005F1804505F59C35D5F8088003F0030606
:10240000B6000EFA06F628EA0606AE602568154004
:102410002560656815406560A5681540A560E5689C
:102420002A40E2600133102BBBD1BDE8F08300BF2E
:10243000003C01400369194214BF0120002070478D
:102440000AB1018370474183704700BF4369594017
:102450004161704782B04FF480330193019B0B437D
:102460000193019BC361C161019BC361C369019376
:10247000C06980F48030C0F3004002B0704700BFF4
:10248000704700BF08B5044B5B69034203D0024BA1
:102490005861FFF7F5FF08BD003C0140F0B587B07B
:1024A0000746224A536C43F48053536438260196FE
:1024B0000223029305230593002503950324049426
:1024C00001A91B48FFF76EFE4FF4004301930295EC
:1024D0000395049401A91748FFF764FE164C276082
:1024E0006560A560256165614FF40073A361E661D5
:1024F00025626562E560A5620723E362204601F07C
:10250000F3FC2268536843F04003536001220B49F7
:10251000204602F0A7F90122294623200AF08AFE6C
:1025200023200AF0B9FE07B0F0BD00BF003802401A
:102530000004024000000240F4090020EC090020E1
:10254000704700BF704700BF10B584B00446104A02
:1025500001AB10685168926807C322460D4901A873
:102560000DF0B4FF01A9002300E0134611F8010BA0
:102570005A1C632804D15A1E18BF002303D105E05A
:102580000C2AF2D1F7E701339342FCD104B010BD1D
:10259000244B0108304B010808B5024802F0F6FD53
:1025A00008BD00BFF4090020704700BF002800F0FC
:1025B000968010B5044690F83D3013F0FF0F01D11E
:1025C000FFF7F2FF022384F83D30464B5A6822F4AD
:1025D00040325A60596862680A435A6022685368F8
:1025E00023F48073536022685368216943EA01230E
:1025F00053602268536823F0407353602268516827
:10260000A3680B4353602268936823F400639360CC
:1026100022689168E3680B4393602268936823F013
:102620007063936022689168236B0B439360226808
:10263000936823F04053936022689168E36A0B43E8
:1026400093602268936823F0020393602268936882
:10265000A16943EA41039360636A8BB122685368BE
:1026600043F4006353602268536823F4604353606B
:1026700021684A68A36A013B42EA43334B6004E0A5
:102680002268536823F4006353602268D36A23F4FA
:102690007003D3622168CA6A236A013B42EA03538A
:1026A000CB622268936823F4007393602268936876
:1026B000E16943EA412393602268936823F48063CD
:1026C000936022689368616943EA812393600020E4
:1026D0002064012384F83D3084F83C0010BD0120C3
:1026E000704700BF00230140704700BF58B110B5CC
:1026F0000446022380F83D30FFF7F6FF00202064F7
:1027000084F83D0010BD0120704700BF90F83C30B8
:10271000012B38D0012380F83C3090F83D30DBB2FB
:10272000222B0CBF3223122380F83D3003689A68B5
:1027300012F0010F0AD19A6842F001029A6040F249
:102740001D2300BF013B9BB2002BFAD10F4B5B68EE
:1027500013F01F0F07D1C36A83B90268936843F06F
:10276000804393600AE00268094B9A4206D1C36A2B
:1027700023B9074A936843F080439360002380F8AD
:102780003C30184670470220704700BF00230140CC
:10279000002001400268936823F001039360012345
:1027A00080F83D300020704770B505460C4607F0B4
:1027B0003DF906460FE0B4F1FF3F0DD024B107F01C
:1027C00035F9801B844206D2032085F83D000023A2
:1027D00085F83C3070BD2A68136813F0020FEAD008
:1027E00095F83D30DBB2252B0CBF3523152385F83A
:1027F0003D30002070BD00BFF8B506460C461546BA
:1028000007F014F907460FE0B5F1FF3F0DD025B1F1
:1028100007F00CF9C01B854206D2032086F83D0064
:10282000002386F83C30F8BD3268136834EA0303AD
:10283000EAD1012C07D1062386F83D306FF0010361
:1028400013600020F8BD042386F83D306FF02003AC
:1028500013600020F8BD00BF90F83C30012B44D03D
:10286000012380F83C3090F83D30DBB2222B0CBFC6
:102870003223122380F83D300023036403689A68F2
:1028800012F0010F0AD19A6842F001029A6040F2F8
:102890001D2300BF013B9BB2002BFAD10268536895
:1028A00043F0806353600268536843F02003536031
:1028B0000F4B5B6813F01F0F07D1C36A83B902681F
:1028C000936843F0804393600AE00268094B9A42A0
:1028D00006D1C36A23B9074A936843F080439360E3
:1028E000002380F83C30184670470220704700BF34
:1028F00000230140002001400268536823F02003B8
:1029000053600268536823F0800353600268936841
:1029100023F001039360012380F83D3000207047CD
:1029200010B590F83C40012C3BD013460A460446B3
:10293000012180F83C100168486840F080604860E0
:102940002168886840F480708860A16B1648C8636D
:10295000A16B16480864A16B1548886421684C3146
:10296000A06B03F055FC122384F83D3023689A686D
:1029700012F0010F0AD19A6842F001029A6040F207
:102980001D2300BF013B9BB2002BFAD1E36A23B9A0
:102990002268936843F080439360002084F83C00F1
:1029A00010BD022010BD00BFF5290008152A00083F
:1029B000452B000810B504460268936823F0010314
:1029C00093600268536823F08063536002689368E1
:1029D00023F480739360806B03F05CFC012384F824
:1029E0003D30002010BD00BF0368D86C704700BFA9
:1029F000704700BF08B5806B90F83D30DBB2252BE7
:102A00000CBF3523152380F83D30FFF7F1FF08BDDB
:102A1000704700BF08B5806BFFF7FAFF08BD00BF25
:102A2000704700BF704700BF10B5044603681A68BE
:102A3000596812F0020F34D011F0200F31D090F805
:102A40003D20D2B2252A0CBF3522152280F83D2028
:102A50008269FAB9C26AEAB942694AB95A6822F087
:102A600020025A600268536823F08063536011E0CB
:102A7000426B0AB9026A4263626B013A6263626B3B
:102A800042B95A6822F020025A602268536823F043
:102A9000806353602046FFF7ABFF23686FF00202AC
:102AA0001A6023681A68596812F0040F20D011F0D8
:102AB000800F1DD094F83D20D2B2152A0CBF3522CC
:102AC000252284F83D2058689A6802F44012A169D2
:102AD00011B110F4806F04D11AB95A6822F0800243
:102AE0005A6020460AF050F823686FF004021A601A
:102AF00023681A68596812F0010F0BD011F0400FCB
:102B000008D0062284F83D206FF001021A602046AA
:102B1000FFF786FF23681A68596812F0200F0FD05C
:102B200011F0806F0CD0042284F83D20226C42F01A
:102B3000010222646FF020021A602046FFF772FF44
:102B400010BD00BF08B5806B042380F83D30036CD6
:102B500043F002030364FFF765FF08BD90F83C30C3
:102B6000012B00F0998030B4012380F83C300B68D1
:102B7000092B16D90568EA6803EB43031E3B0724BB
:102B800004FA03F322EA0303EB600568EA680B68C2
:102B900003EB43031E3B8C6804FA03F31343EB601F
:102BA00013E005682A6903EB4303072404FA03F3DF
:102BB00022EA03032B6105682A690B6803EB4303D0
:102BC0008C6804FA03F313432B614B68062B16D869
:102BD00005686A6B03EB8303053B1F2404FA03F3C8
:102BE00022EA03036B6305686A6B4B6803EB83039C
:102BF000053B0C6804FA03F313436B632EE00C2BC4
:102C000016D805682A6B03EB8303233B1F2404FAC1
:102C100003F322EA03032B6305682A6B4B6803EB7B
:102C20008303233B0C6804FA03F313432B6315E07F
:102C30000568EA6A03EB8303413B1F2404FA03F3AC
:102C400022EA0303EB620568EA6A4B6803EB83033D
:102C5000413B0C6804FA03F31343EB620268104B28
:102C60009A4214D10B68122B08D10E4A536843F4D0
:102C70008003536002680A4B9A4208D10B68103BEC
:102C8000012B04D8074A536843F400035360002320
:102C900080F83C30184601E00220704730BC704795
:102CA000002001400023014090F83C30012B2ED041
:102CB00010B4012380F83C300B69012B0268536883
:102CC0000CBF43F0400323F0400353600268536895
:102CD00023F4400323F400735360026854680B68C4
:102CE0002343536003684A685A6203688A689A6299
:102CF0000268536823F01F03536002685468CB686E
:102D000023435360002380F83C30184601E0022042
:102D100070475DF8044B704790F83D00704700BF66
:102D2000006C70470346054A126812B90449034A09
:102D30001160024A1068034413607047FC080020C9
:102D4000040E00204FF0FF30704700BF4FF0FF30FF
:102D5000704700BF4FF400534B600020704700BF26
:102D6000012070470020704710467047104670479A
:102D7000FEE700BF30B587B04FF480730193174B67
:102D80000293002404940125039501A91448FFF738
:102D900009FA144B1C70144A136C43F0400313647B
:102DA0001248134B03600223436084604FF6FF73A5
:102DB000C360046107F01CFE2A4621462B200AF05E
:102DC00039FA2B200AF068FA2246214617200AF029
:102DD00031FA17200AF060FA07B030BD0000311058
:102DE00000000240480A0020003802404C0A00203F
:102DF0000018004008B51B4B5B6913F4807F2FD08F
:102E00004FF48072174B5A61174B1B78012B14D06B
:102E100013B1022B18D008BD4FF480711348FFF78F
:102E200009FB30B9124806F0C1FF01220E4B1A709F
:102E300008BD00220C4B1A7008BD0D4806F0C4FFF7
:102E40000222094B1A7008BD17200AF031FA08480F
:102E5000036800225A624CF23872DA6206F0CCFF44
:102E600008BD00BF003C0140480A002000000240AD
:102E70004C0A002030B583B000230093ADF8043035
:102E8000414B1B681A6912F0010F7AD0DA6812F010
:102E9000010F76D06FF001021A613C4B1B78022BB8
:102EA0006FD13B4B1C780B2C0DD81D46631C2B702F
:102EB0004FF480713748FFF7BDFA2C44B0FA80F028
:102EC000400920715DE0324A907AD17A0B0103EB20
:102ED0004011D37B0B44117B03EBC103517B03EB0C
:102EE0008103917B03EB4103DBB2002151609160D0
:102EF000D1600091ADF80410092B2DD8DFE803F064
:102F000005090D1115191D2125290022224B1A70C2
:102F100022E00122204B1A701EE002221E4B1A7082
:102F20001AE003221C4B1A7016E004221A4B1A7086
:102F300012E00522184B1A700EE00622164B1A708A
:102F40000AE00722144B1A7006E00822124B1A708E
:102F500002E00922104B1A7000240D4B1C700B4B21
:102F60001C70094D284606F02FFF2B685C624FF657
:102F7000FF72DA624FF48072084B5A6117200AF030
:102F80008BF903B030BD00BF4C0A0020480A002076
:102F9000000900200000024000000020003C014029
:102FA000014B93F9000070470000002010B4046A40
:102FB00004238B4024EA03030362036A8A4042EA43
:102FC000030101625DF8044B704700BF704700BF0A
:102FD000002852D070B588B004460E46022380F80F
:102FE0003930FFF7F3FF211D206807F099FCB36823
:102FF00003223168206807F097FE2268936923F066
:103000000C0393612268916973680B439361226892
:10301000536843F0800353602268936823F0700381
:1030200093602268936843F040039360226893683A
:1030300023F0070393602268936843F004039360CE
:103040000025059506957023019307950495039532
:10305000F368029301A9206807F096FD226853687F
:1030600023F0700353602268536843F050035360A9
:10307000012384F83930284601E00120704708B068
:1030800070BD00BF704700BF10B50446022380F832
:1030900039300368196A41F21112114208D1196AD4
:1030A00040F24442114203D11A6822F001021A6030
:1030B0002046FFF7E7FF002084F8390084F8380045
:1030C00010BD00BF10B5044601220021006807F0C2
:1030D00087FF2268136843F001031360002010BDCE
:1030E00010B5044600221146006807F079FF2368F6
:1030F000196A41F21112114208D1196A40F2444290
:10310000114203D11A6822F001021A60002010BD9A
:1031100010B504460268D36843F00203D36001226D
:103120000021006807F05CFF2268136843F0010388
:103130001360002010BD00BF10B5044600221146E8
:10314000006807F04DFF2268D36823F00203D360C4
:103150002368196A41F21112114208D1196A40F22A
:103160004442114203D11A6822F001021A60002081
:1031700010BD00BF70B590F83950EDB2022D2AD0C5
:1031800090F83940E4B2012C04D101B92ABB0223E2
:1031900080F8393016460D460446012200210068A9
:1031A00007F01EFF236A0E4ADA63236A0D4A9A6407
:1031B000216833462A463431206A03F029F8226810
:1031C000D36843F40073D3602268136843F00103AB
:1031D0001360002070BD022070BD012070BD00BFD3
:1031E00031A70008E1A8000810B5044600221146E6
:1031F000006807F0F5FE2268D36823F40073D360FB
:103200002368196A41F21112114208D1196A40F279
:103210004442114203D11A6822F001021A600020D0
:1032200010BD00BF10B5044604220068FFF7BEFEC3
:103230002268536C43F4004353642268136843F0DC
:1032400001031360002010BD10B504460022006881
:10325000FFF7ACFE2368196A41F21112114208D13E
:10326000196A40F24442114203D15A6C22F40042DE
:103270005A642368196A41F21112114208D1196A7D
:1032800040F24442114203D11A6822F001021A604E
:10329000002010BD10B504460C291FD8DFE801F04E
:1032A000071E1E1E0D1E1E1E131E1E1E1900026866
:1032B000D36843F00203D36010E00268D36843F0A0
:1032C0000403D3600AE00268D36843F00803D360C4
:1032D00004E00268D36843F01003D360042220683E
:1032E000FFF764FE2268536C43F400435364226882
:1032F000136843F001031360002010BD10B50446AD
:103300000C291FD8DFE801F0071E1E1E0D1E1E1E11
:10331000131E1E1E19000268D36823F00203D36037
:1033200010E00268D36823F00403D3600AE0026867
:10333000D36823F00803D36004E00268D36823F065
:103340001003D36000222068FFF730FE2368196A5B
:1033500041F21112114208D1196A40F2444211425D
:1033600003D15A6C22F400425A642368196A41F26C
:103370001112114208D1196A40F24442114203D19C
:103380001A6822F001021A60002010BD70B590F892
:103390003950EDB2022D70D090F83940E4B2012CD2
:1033A00005D10AB9002B6AD1022480F839401646AB
:1033B0000D4604460C294FD8DFE801F0074E4E4E6B
:1033C000194E4E4E2B4E4E4E3D00026A2D49D16392
:1033D000026A2D499164026834323146006A02F073
:1033E00017FF2268D36843F40073D36034E0426A65
:1033F0002449D163426A24499164026838323146D3
:10340000406A02F005FF2268D36843F48063D3600A
:1034100022E0826A1B49D163826A1B499164026877
:103420003C323146806A02F0F3FE2268D36843F4EE
:103430000063D36010E0C26A1249D163C26A1249C4
:103440009164026840323146C06A02F0E1FE2268AF
:10345000D36843F48053D360042229462068FFF7E1
:10346000A5FD2268536C43F400435364226813683B
:1034700043F001031360002070BD022070BD0120E5
:1034800070BD00BF45A70008E1A8000810B50446BC
:103490000C291FD8DFE801F0071E1E1E0D1E1E1E80
:1034A000131E1E1E19000268D36823F40073D36034
:1034B00010E00268D36823F48063D3600AE00268F6
:1034C000D36823F40063D36004E00268D36823F474
:1034D0008053D36000222068FFF768FD2368196AD3
:1034E00041F21112114208D1196A40F244421142CC
:1034F00003D15A6C22F400425A642368196A41F2DB
:103500001112114208D1196A40F24442114203D10A
:103510001A6822F001021A60012384F83930002071
:1035200010BD00BF10B5044604220068FFF73EFD41
:103530002268536C43F4004353642268136843F0D9
:1035400001031360002010BD10B50446002200687E
:10355000FFF72CFD2368196A41F21112114208D1BC
:10356000196A40F24442114203D15A6C22F40042DB
:103570005A642368196A41F21112114208D1196A7A
:1035800040F24442114203D11A6822F001021A604B
:10359000002010BD10B504460C291FD8DFE801F04B
:1035A000071E1E1E0D1E1E1E131E1E1E1900026863
:1035B000D36843F00203D36010E00268D36843F09D
:1035C0000403D3600AE00268D36843F00803D360C1
:1035D00004E00268D36843F01003D3602268D36824
:1035E00043F08003D36004222068FFF7DFFC2268E9
:1035F000536C43F4004353642268136843F001039F
:103600001360002010BD00BF10B504460C291FD860
:10361000DFE801F0071E1E1E0D1E1E1E131E1E1EBD
:1036200019000268D36823F00203D36010E0026837
:10363000D36823F00403D3600AE00268D36823F060
:103640000803D36004E00268D36823F01003D3605A
:103650002268D36823F08003D36000222068FFF73C
:10366000A5FC2368196A41F21112114208D1196AA6
:1036700040F24442114203D15A6C22F400425A648F
:103680002368196A41F21112114208D1196A40F2F5
:103690004442114203D11A6822F001021A6000204C
:1036A00010BD00BF70B590F83950EDB2022D70D04A
:1036B00090F83940E4B2012C05D10AB9002B6AD147
:1036C000022480F8394016460D4604460C294FD88E
:1036D000DFE801F0074E4E4E194E4E4E2B4E4E4E29
:1036E0003D00026A2D49D163026A2D499164026846
:1036F00034323146006A02F08BFD2268D36843F40D
:103700000073D36034E0426A2449D163426A244999
:103710009164026838323146406A02F079FD2268CD
:10372000D36843F48063D36022E0826A1B49D1638B
:10373000826A1B49916402683C323146806A02F019
:1037400067FD2268D36843F40063D36010E0C26A67
:103750001249D163C26A124991640268403231460B
:10376000C06A02F055FD2268D36843F48053D360E9
:10377000042229462068FFF719FC2268536C43F4A1
:10378000004353642268136843F001031360002070
:1037900070BD022070BD012070BD00BF45A70008AC
:1037A000E1A8000810B504460C291FD8DFE801F095
:1037B000071E1E1E0D1E1E1E131E1E1E1900026851
:1037C000D36823F40073D36010E00268D36823F455
:1037D0008063D3600AE00268D36823F40063D36097
:1037E00004E00268D36823F48053D3600022206889
:1037F000FFF7DCFB2368196A41F21112114208D16C
:10380000196A40F24442114203D15A6C22F4004238
:103810005A642368196A41F21112114208D1196AD7
:1038200040F24442114203D11A6822F001021A60A8
:10383000012384F83930002010BD00BF10B50446C4
:1038400004220068FFF7B2FB2268536C43F4004384
:103850005364002010BD00BF10B50446002200686C
:10386000FFF7A4FB2368196A41F21112114208D133
:10387000196A40F24442114203D15A6C22F40042C8
:103880005A642368196A41F21112114208D1196A67
:1038900040F24442114203D11A6822F001021A6038
:1038A000002010BD10B504460268D36843F002033F
:1038B000D3600268D36843F00403D3600422006835
:1038C000FFF774FB2268536C43F4004353640020F9
:1038D00010BD00BF10B504460268D36823F0020390
:1038E000D3600268D36823F00403D3600022006829
:1038F000FFF75CFB2368196A41F21112114208D1EB
:10390000196A40F24442114203D15A6C22F4004237
:103910005A642368196A41F21112114208D1196AD6
:1039200040F24442114203D11A6822F001021A60A7
:10393000002010BD90F83830012B24D010B40123A2
:1039400080F8383031F0100301D0202B08D1046802
:10395000A36823F07003A3600468A3681943A160FF
:1039600001684B6843F001034B6001684B6823F02A
:1039700004034B60036859680A435A60002380F8C7
:103980003830184601E0022070475DF8044B70475C
:1039900090F83830012B29D010B4012380F838304A
:1039A00031F0100301D0202B08D10468A36823F064
:1039B0007003A3600468A3681943A16001684B68A1
:1039C00043F001034B6001684B6823F004034B6034
:1039D000036859680A435A600268D36843F02003B9
:1039E000D360002380F83830184601E00220704789
:1039F0005DF8044B704700BF90F83830012B2FD092
:103A000010B4012380F8383031F0100301D0202B9E
:103A100008D10468A36823F07003A3600468A36856
:103A20001943A16001684B6843F001034B600168D2
:103A30004B6823F004034B60036859680A435A60DB
:103A4000036B0A4ADA63036B094A9A640268D36813
:103A500043F40053D360002380F83830184601E067
:103A6000022070475DF8044B704700BF393B0008E7
:103A7000E1A8000890F83830012B21D030B40122A1
:103A800080F83820022380F839300468636823F016
:103A900070036360046865680B682B4363600468A7
:103AA000A36823F08003A3600468A5684B682B43D8
:103AB000A36080F83920002380F83830184601E0F0
:103AC0000220704730BC704790F83830012B1CD072
:103AD00030B4012580F83850022380F8393004686A
:103AE0000A684B681A438B681A43CB681A430B6900
:103AF0001A434B691A438B691343636480F8395046
:103B0000002380F83830184601E00220704730BCAE
:103B1000704700BF90F83830012B09D00368196551
:103B2000012380F83930002380F838301846704778
:103B300002207047704700BF08B5806B012380F8F2
:103B40003930FFF7F7FF08BD704700BF90F8390024
:103B5000704700BF08B50A4601461D2005F0EEFD7E
:103B600008BD00BF08B5054A0021054805F02EFD37
:103B700001212A20FFF7EEFF08BD00BFA08601004B
:103B80000054004008B501461D2005F0EDFD08BDBC
:103B900038B5C5B22846FFF7F5FF0446681CC0B229
:103BA000FFF7F0FF64B2240107EE904AB8EEE77A1F
:103BB00040F3071007EE900AF8EEE77A77EE877A7F
:103BC0009FED077AF4EEC77AF1EE10FA5DBF77EE5B
:103BD000A77A9FED047A87EE870A9FED030A38BD26
:103BE00000C0FFC400E0FF440000000008B5012051
:103BF000FFF7CEFF08BD00BF08B50320FFF7C8FFE1
:103C000008BD00BF08B50520FFF7C2FF08BD00BF13
:103C100008B501F069FC08BD08B501F033FD08BD29
:103C200010B504460146002001F0D4FC21460020D6
:103C300001F0FCFC10BD00BF10B504460146012098
:103C400001F0C8FC2146012001F0F0FC10BD00BFCE
:103C500010B504460146012001F0BCFC21460020BD
:103C600001F0E4FC10BD00BF10B504460146002081
:103C700001F0B0FC2146012001F0D8FC10BD00BFCE
:103C80002DE9F0479EB0C023199302241A9403260D
:103C90001C9601251B951D9619A93848FEF782FA36
:103CA0004FF4206319931A941C961B951D9519A91E
:103CB0003348FEF777FA334F7B6C2B437B64DFF896
:103CC000D080CDF8288000240B940C944FF6FF7A16
:103CD000CDF834A00E9401960294069403950795AE
:103CE000049408944FF00809CDF81490CDF824906E
:103CF00001A90AA806F0FEFE0A9B5C6204210AA83C
:103D000007F0EAFE7B6C43F002037B64A7F59A3769
:103D10000A970B940C94CDF834A00E94019602945B
:103D200006940395079504940894CDF81490CDF863
:103D3000249001A90AA806F0DDFE0A9B5C6204211A
:103D40000AA807F0C9FE104BC3F810801C755C6010
:103D50001C609C600D4B1F611C755C601C609C604E
:103D6000D8F810204FF6FE731A40C8F810203A69B0
:103D700013403B611EB0BDE8F08700BF0008024061
:103D80000010024000380240880A0020A00A0020EB
:103D900000000140064B5B6A064A136090681B1ADC
:103DA0009BB2044AD06800FA83F0D06090607047FC
:103DB00000000140A00A0020064B5B6A064A13601F
:103DC00090681B1A9BB2044AD06800FA83F0D06056
:103DD0009060704700040140880A00200023054AD3
:103DE000D360054AD360054A5362A2F580625362EC
:103DF000704700BF880A0020A00A0020000401408C
:103E00002DE9F04106460D4690461C4605F00EFE93
:103E10000746B8F1000F2AD05BE0B4F1FF3F27D08E
:103E200024B105F003FEC01B844220D232685368DF
:103E300023F0E00353603268136823F040031360FB
:103E4000B36AB3F5005F09D13268136823F40053F5
:103E500013603268136843F400531360012386F83B
:103E60005130002386F850300320BDE8F0813268DD
:103E7000936835EA0303D0D10020BDE8F081B4F1A6
:103E8000FF3F27D024B105F0D1FDC01B844220D2D2
:103E90003268536823F0E00353603268136823F0FC
:103EA00040031360B36AB3F5005F09D13268136849
:103EB00023F4005313603268136843F40053136013
:103EC000012386F85130002386F850300320BDE8E6
:103ED000F0813268936835EA0303D0D00020BDE852
:103EE000F08100BF704700BF00283BD010B50446EA
:103EF00090F8513013F0FF0F01D1FFF7F3FF0223C9
:103F000084F851302268136823F04003136021685D
:103F10006268A3681A43E3681A4323691A43636912
:103F20001A43E3691A43236A1A43A36A1A43A3692B
:103F300003F4007313430B602168638B03F00402E6
:103F4000636A13434B602368E26A1A612268D3698B
:103F500023F40063D361002084F85200012384F825
:103F6000513010BD01207047704700BF80B110B5BF
:103F700004460268136823F040031360FFF7F4FF60
:103F8000002084F8520084F8510084F8500010BDDD
:103F900001207047F8B590F85150EDB2012D40F076
:103FA000CC80002900F0CB80002A00F0CA8090F875
:103FB0005040012C00F0C780012480F850401224AA
:103FC00080F85140002480F8524001638286C28606
:103FD000C46484648487C487826AB2F5005F09D1AF
:103FE00001680A6822F400520A6001680A6842F413
:103FF00000520A608268B2F5004F04D101680A6875
:1040000042F480420A600268116811F0400F03D147
:10401000116841F0400111601D460446C368002B41
:104020002FD1436813B1C38E012B08D12268236BB3
:10403000591C21631B78D360E38E013BE386E38E3A
:10404000ABB1002702262B463A4631462046FFF701
:10405000D7FE002879D12268236B591C21631B7875
:10406000D360E28E013A92B2E286002AEBD1A36AD3
:10407000B3F5005F36D12268136843F480531360B0
:1040800030E0436813B1C38E012B09D12368226B42
:104090001288DA60236B02332363E38E013BE386ED
:1040A000E38EB3B1002702262B463A46314620461E
:1040B000FFF7A6FE00284AD12368226B1288DA6037
:1040C000236B02332363E28E013A92B2E286002A26
:1040D000EAD1A36AB3F5005F04D12268136843F400
:1040E000805313602B46002202212046FFF788FEF2
:1040F00038B194F8523043F0200384F8523003234F
:1041000026E02B46012280212046FFF779FE034658
:1041100038B194F8523043F0200384F8523003232E
:1041200016E0A26812B92268D1689268012284F868
:104130005120002284F850200AE0022308E00123E5
:1041400006E0012304E0022302E0032300E003234E
:104150001846F8BDF0B583B090F85150EDB2012D7E
:1041600002D0222D40F08181002900F08081002AB8
:1041700000F07F81002B00F07E8190F85040012CF0
:1041800000F07B81012480F8504090F85140E4B267
:10419000012C04BF322480F85140002480F85240A2
:1041A00082638387C38701638386C3868464C46410
:1041B000836AB3F5005F09D10268136823F40053E2
:1041C00013600268136843F40053136003681A68AD
:1041D00012F0400F03D11A6842F040021A60044600
:1041E000C368B3F5006F7FD143682BB1B3F5827F0D
:1041F0000CD1C38E012B09D12368226B1288DA609F
:10420000236B02332363E38E013BE386E38EE3B942
:10421000A36AB3F5005F04D12268136843F48053A6
:104220001360089B002201212046FFF7E9FD0028CA
:1042300040F02581A36B2268D2681A80A36B0233F9
:10424000A363E38F013BE387C3E000250226012738
:10425000089B2A4631462046FFF7D2FD002840F051
:1042600010812368226B1288DA60236B0233236388
:10427000E38E013B9BB2E38643B9A36AB3F5005FCB
:1042800004D12268136843F480531360089B2A46C4
:1042900039462046FFF7B4FD002840F0F480A36BB8
:1042A0002268D2681A80A36B0233A363E38F013BB9
:1042B000E387E38E002BCBD16368002B40F089802D
:1042C000089B002201212046FFF79AFD002840F0BC
:1042D000DC80A36B2268D2681A80A36B0233A363CD
:1042E000E38F013BE38774E043682BB1B3F5827F32
:1042F0000BD1C38E012B08D12268236B591C21637B
:104300001B78D360E38E013BE386E38ECBB9A36ACF
:10431000B3F5005F04D12268136843F4805313603F
:10432000089B002201212046FFF76AFD002840F08B
:10433000AE80A36B2268D2681A70E38F013BE387DB
:1043400047E0002502260127089B2A4631462046E1
:10435000FFF756FD002840F09C802268236B591C13
:1043600021631B78D360E38E013B9BB2E38643B9A4
:10437000A36AB3F5005F04D12268136843F4805345
:104380001360089B2A4639462046FFF739FD00286E
:1043900040F08180A36B5A1CA2632268D2681A7015
:1043A000E38F013BE387E38E002BCDD1636883B9B4
:1043B000089B002201212046FFF722FD00286CD136
:1043C000A36B5A1CA2632268D2681A70E38F013B68
:1043D000E387A36AB3F5005F13D1089B0022012194
:1043E0002046FFF70DFD38B194F8523043F0020338
:1043F00084F85230032351E02368DB689BB2ADF8A8
:104400000630089B012280212046FFF7F9FC034675
:1044100038B194F8523043F0200384F8523003232B
:104420003CE0012284F8512022689068A16AB1F52D
:10443000005F16D110F0100F13D094F8523043F0F3
:10444000020384F85230136823F400531360226887
:10445000136843F400531360002384F850300123A1
:104460001CE0002284F8502018E0022316E001230B
:1044700014E0012312E0012310E002230EE00323E5
:104480000CE003230AE0032308E0032306E00323F0
:1044900004E0032302E0032300E00323184603B0F3
:1044A000F0BD00BFF0B585B090F85150EDB2012DD0
:1044B00040F0FF80002900F0FE80002A00F0FD801F
:1044C00090F85040012C00F0FA80012480F8504010
:1044D000222480F85140002480F852408163828772
:1044E000C2878464C4648486C4868468B4F5004F3B
:1044F00004D105682C6824F480442C60846AB4F5E7
:10450000005F09D105682C6824F400542C6005680C
:104510002C6844F400542C601E4604464368B3F5EE
:10452000827F0AD1836843B980F8503000961346E1
:104530000A46FFF70FFE0546C8E023681A6812F026
:10454000400F03D11A6842F040021A60E3681BB1C1
:10455000E38F012B24D83BE0E38F012B16D90027F2
:10456000012533463A4629462046FFF749FC0028F4
:1045700040F0A780A36B5A1CA2632268D2681A700D
:10458000E28F013A92B2E287012AEAD8A36AB3F530
:10459000005F26D12268136843F48053136020E043
:1045A0000027012533463A4629462046FFF728FCD6
:1045B000002840F08880A36B2268D2681A80A36B21
:1045C0000233A363E28F013A92B2E287012AE9D86B
:1045D000A36AB3F5005F04D12268136843F48053E3
:1045E00013603346002201212046FFF709FC0546EF
:1045F00000286AD1E36833B9A36B5A1CA26322680E
:10460000D2681A7006E0A36B2268D2681A80A36B86
:104610000233A363E38F013BE387A36AB3F5005F33
:1046200013D13346002201212046FFF7E9FB38B1C0
:1046300094F8523043F0020384F85230032545E0E9
:104640002368DB689BB2ADF80E306368B3F5827FF8
:104650000BD1A368B3F5004F02D0B3F5806F04D13E
:104660002268136823F040031360012384F851305B
:1046700023689968A26AB2F5005F16D111F0100F95
:1046800013D094F8522042F0020284F852201A68A3
:1046900022F400521A602268136843F40053136036
:1046A000002384F85030012510E0002384F85030B6
:1046B0000CE002250AE0012508E0012506E00225BC
:1046C00004E0032502E0032500E00325284605B0A9
:1046D000F0BD00BF90F85130DBB2012B4BD1002967
:1046E0004BD0002A4BD090F85030012B49D010B459
:1046F000012380F85030122380F85130002380F8D5
:104700005230234CC46401638286C28683648387EB
:10471000C3878368B3F5004F04D10268136843F47C
:1047200080431360836AB3F5005F09D102681368A0
:1047300023F4005313600268136843F400531360BA
:1047400083682BB90268536843F08003536004E028
:104750000268536843F0A0035360002380F8503090
:1047600003681A6812F0400F0DD11A6842F0400237
:104770001A60002008E002207047012070470120E5
:1047800070470220704700205DF8044B704700BF5F
:10479000F14C000830B490F85140E4B2012C08D03C
:1047A0004568B5F5827F47D18568002D46D1222C1A
:1047B00046D1002946D0002A46D0002B46D090F89A
:1047C0005040012C44D0012480F8504090F85140D2
:1047D000E4B2222C1CBF322480F85140002480F81F
:1047E00052401E4CC46401638386C3861C498164A5
:1047F00082638387C387836AB3F5005F09D1026848
:10480000136823F4005313600268136843F40053E1
:1048100013600268536843F0E0035360002380F89C
:10482000503003681A6812F0400F13D11A6842F032
:1048300040021A6000200EE002200CE002200AE094
:10484000022008E0012006E0012004E0012002E04F
:10485000022000E0002030BC704700BFF14C00088F
:10486000094F000890F85130DBB2012B51D10029DB
:1048700051D0002A51D090F85030012B4FD010B5B4
:10488000012380F85030222380F85130002380F833
:104890005230254C846481638287C287C3648386D7
:1048A000C3868368B3F5004F05D10268136823F40B
:1048B000804313600CE05BB94368B3F5827F07D196
:1048C0001346002280F850200A46FFF763FF10BD10
:1048D000836AB3F5005F09D10268136823F40053BB
:1048E00013600268136843F400531360026853684E
:1048F00043F060035360002380F8503003681A6867
:1049000012F0400F0DD11A6842F040021A600020E8
:1049100010BD02207047012070470120704702201F
:104920007047002010BD00BFBD4E000890F8513008
:10493000DBB2012B53D1002953D0002A53D090F879
:104940005030012B51D010B5012380F85030122384
:1049500080F85130002380F8523001638286C2868D
:10496000C36483648387C3878368B3F5004F04D12E
:104970000268136843F480431360836AB3F5005FF1
:1049800009D10268136823F40053136002681368A6
:1049900043F4005313600446036C164A1A64036C14
:1049A000154ADA63036C154A9A640268C38E0C32A6
:1049B000016B006C01F02CFC2268536843F0020389
:1049C0005360002384F8503023681A6812F0400FB7
:1049D0000DD11A6842F040021A60002010BD02207A
:1049E0007047012070470120704702207047002067
:1049F00010BD00BFC14C0008614F00083D4F0008CA
:104A000038B590F85140E4B2012C08D04568B5F5AE
:104A1000827F72D18568002D71D1222C71D100293D
:104A200071D0002A71D0002B71D090F85040012C29
:104A30006FD0012480F8504090F85140E4B2222C0D
:104A40001CBF322480F85140002480F8524001639A
:104A50008386C38682638387C3878464C464836ACE
:104A6000B3F5005F09D10268136823F400531360A3
:104A70000268136843F40053136090F85130DBB2BE
:104A8000222B06D1436C244A1A64436C234ADA630E
:104A900005E0436C224A1A64436C224ADA630446F6
:104AA000436C214D9D640168C38F826B0C31406C57
:104AB00001F0AEFB2268536843F001035360236C9E
:104AC0000022DA63236C9D642268E38E0C32216B32
:104AD000206C01F09DFB23681A6812F0400F03D18F
:104AE0001A6842F040021A602268536843F00203D9
:104AF0005360002084F8500038BD022038BD0220E9
:104B000038BD022038BD012038BD012038BD01204C
:104B100038BD022038BD00BFD14C0008DD4F000871
:104B2000E14C0008B15000083D4F000810B590F866
:104B30005140E4B2012C60D1002960D0002A60D03D
:104B400090F85030012B5ED00446012380F850309D
:104B5000222380F85130002380F85230816382870D
:104B6000C2878364C3648386C3868368B3F5004FBA
:104B700005D10268136823F4804313600CE05BB92D
:104B80004368B3F5827F07D1002380F85030134685
:104B90000A46FFF735FF10BDA36AB3F5005F09D1E0
:104BA0002268136823F4005313602268136843F4E7
:104BB00000531360636C164A1A64636C154ADA6317
:104BC000636C154A9A642168E38FA26B0C31606CA8
:104BD00001F01EFB2268536843F001035360002379
:104BE00084F8503023681A6812F0400F0DD11A680B
:104BF00042F040021A60002010BD022010BD0120CA
:104C000010BD012010BD022010BD002010BD00BF4E
:104C1000D14C0008DD4F00083D4F000890F850309F
:104C2000012B11D0012380F850300268536823F023
:104C3000020353600268536823F0010353600023AA
:104C400080F85030184670470220704790F8503076
:104C5000012B11D0012380F850300268536843F0D3
:104C6000020353600268536843F00103536000235A
:104C700080F85030184670470220704710B504463F
:104C8000006C08B101F006FB606C08B101F002FB9A
:104C90002268536823F0020353602268536823F0AC
:104CA00001035360012384F85130002010BD00BF80
:104CB000704700BF704700BF704700BF704700BF1C
:104CC00008B5806BFFF7FAFF08BD00BF704700BF53
:104CD00008B5806BFFF7FAFF08BD00BF704700BF43
:104CE00008B5806BFFF7FAFF08BD00BF704700BF33
:104CF000C36833B90268036B591C01631B78D36026
:104D000006E00368026B1288DA60036B0233036308
:104D1000C38E013B9BB2C386002B55D110B5836A6D
:104D2000B3F5005F04D10268136843F48053136045
:104D300004460A2300220221FFF762F828B194F802
:104D4000523043F0200384F852302268536823F035
:104D50008003536023685A6812F0400F33D15A68B9
:104D600022F020025A600A23012280212046FFF708
:104D700047F828B194F8523043F0200384F85230B9
:104D8000A36813B92368DA689B6894F8523013F06B
:104D9000FF0F12D194F85130DBB2322B06D1012330
:104DA00084F851302046FFF787FF10BD012384F8B7
:104DB00051302046FFF77CFF10BD012384F85130AD
:104DC0002046FFF793FF10BD704700BF10B582B0BB
:104DD0000446836AB3F5005F31D10A230022012122
:104DE000FFF70EF828B194F8523043F0200384F80E
:104DF00052302368DB689BB2ADF806300A230122EB
:104E000011462046FEF7FCFF28B194F8523043F0DB
:104E1000200384F8523023689A6812F0100F0ED0E5
:104E200094F8522042F0020284F852201A6822F4C8
:104E300000521A602268136843F40053136022681A
:104E4000536823F04003536023685A6812F0800FC0
:104E500031D15A6822F020025A606368B3F5827F2C
:104E60000BD1A368B3F5004F02D0B3F5806F04D126
:104E70002268136823F04003136094F8523013F053
:104E8000FF0F12D194F85130DBB2322B06D101233F
:104E900084F851302046FFF70FFF0CE0012384F81F
:104EA00051302046FFF706FF05E0012384F851301A
:104EB0002046FFF71BFF02B010BD00BF08B5C36856
:104EC00033B9836B5A1C82630268D2681A7006E099
:104ED000836B0268D2681A80836B02338363C38F4B
:104EE000013B9BB2C387012B08D1836AB3F5005FF6
:104EF00008D10268136843F480531360C38F0BB961
:104F0000FFF764FF08BD00BF08B5C36833B9836B02
:104F10005A1C82630268D2681A7006E0836B0268CA
:104F2000D2681A80836B02338363C38F013B9BB2C9
:104F3000C3870BB9FFF74AFF08BD00BF08B5806BF8
:104F40000023C386C387012380F8513090F8523084
:104F500043F0100380F85230FFF7C8FE08BD00BFD1
:104F600010B5846B03681B6813F4807F23D10A2378
:104F7000002202212046FEF743FF28B194F8523068
:104F800043F0200384F852302268536823F0020370
:104F900053600A23012280212046FEF731FF28B109
:104FA00094F8523043F0200384F852300023E38613
:104FB000012384F85130A36813B92368DA689B6829
:104FC00094F8523013F0FF0F03D02046FFF78EFE07
:104FD00010BD2046FFF76CFE10BD00BF10B582B0BB
:104FE000846B03681B6813F4807F5CD16368B3F53E
:104FF000827F0BD1A368B3F5004F02D0B3F5806F69
:1050000004D12268136823F04003136022685368B8
:1050100023F0010353602268536823F002035360B6
:105020000023E387012384F85130A36AB3F5005FBE
:105030002CD10A23002201212046FEF7E1FE28B1EF
:1050400094F8523043F0200384F852302368DB6830
:105050009BB2ADF806300A23012211462046FEF726
:10506000CFFE28B194F8523043F0200384F8523038
:1050700023689A6812F0100F08D094F8522042F07A
:10508000020284F852206FF010029A6094F85230B5
:1050900013F0FF0F03D02046FFF728FE06E020465E
:1050A000FFF708FE02E02046FFF704FE02B010BD45
:1050B00010B582B0846B03681B6813F4807F60D1E5
:1050C000A36AB3F5005F25D10A23012211462046C9
:1050D000FEF796FE60B90A23002201212046FEF762
:1050E0008FFE28B194F8523043F0200384F85230F8
:1050F0002268D3689BB2ADF80630936813F0100FA6
:1051000008D094F8523043F0020384F852306FF024
:10511000100393600A23002202212046FEF770FE4E
:1051200028B194F8523043F0200384F852302268BA
:10513000536823F0020353600A2301228021204692
:10514000FEF75EFE28B194F8523043F0200384F855
:1051500052302268536823F0010353600023E38632
:10516000E387012384F8513094F8523013F0FF0F95
:1051700003D02046FFF7BAFD06E02046FFF79CFD6E
:1051800002E02046FFF798FD02B010BD10B503689D
:105190009A6859689C6812F0010F08D011F0400F0E
:1051A00005D014F0400F02D1836C984710BD9A6867
:1051B000596812F0020F05D011F0800F02D0C36CB5
:1051C000984710BD5A6812F0200F43D09A6812F029
:1051D000100F08D090F8522042F0020280F85220BE
:1051E0006FF010029A6003689A6812F0200F0AD0DC
:1051F00090F8522042F0010280F852209A681A6812
:1052000022F040021A6003689A6812F0400F0CD036
:1052100090F85120D2B2122A07D090F8522042F0D2
:10522000040280F85220DA689A689A6812F4807F43
:1052300006D090F8522042F0080280F852209B6875
:1052400090F8523013F0FF0F04D0012380F8513052
:10525000FFF74CFD10BD00BF90F85100704700BF34
:1052600090F85200704700BF00B583B004F076FCA0
:1052700000F022F808F040F9FAF7F0FF07F0A8FA7A
:10528000FDF778FD00F030F90022009213460C2162
:10529000064800F065FAFEF7F3FC0549054800F002
:1052A00019FBFEF75FFC04F0B3FCFCE740420F0083
:1052B000344B0108004C004008B5144B1A6B42F007
:1052C00001021A631A6B42F002021A631A6B42F06F
:1052D00004021A631A6B42F008021A631A6B42F056
:1052E00010021A6307F0B8FD00F012F808F09CF8FD
:1052F00007F086FE04F056FA00F098F807F09CFEDE
:10530000FAF794FF07F05EFD08BD00BF00380240C9
:1053100000B587B004230193032302930023039372
:1053200001A90348FCF73EFF07B05DF804FB00BF8E
:105330000000024038B52DED028B022007F058FE28
:1053400007EE900AF8EE677A17EE900A0AF0D8FC9A
:105350002DA3D3E900230AF027FD32A3D3E90023CC
:105360000AF04CFE0AF0E2FF08EE900A9FED2A8A4E
:1053700068EE887A17EE900A0AF0C2FC04460D46E1
:1053800018EE900A0AF0BCFC02460B461EA1D1E9B9
:1053900000010AF055FB02460B46204629460AF05A
:1053A0002DFE0AF0C3FF07EE100AC7EE087A17EECB
:1053B000900A0AF0A5FC41EC100B08F005FF51EC37
:1053C000100B0AF0B3FFDFED157A07EE100A67EE57
:1053D000277A9FED137A77EE877AB7EE007AC7EED9
:1053E000276A16EE900A0AF08BFC09A3D3E9002382
:1053F0000AF026FB0AF09AFF00EE100ABDEC028BC1
:1054000038BD00BFAFF300806666666666660A4018
:10541000666666666612714000401C465C9198396B
:10542000C8CE5B3B0000000000FEAF4010B586B068
:105430000E2301930124029401A90A48FCF7B2FE4D
:1054400020230193029401A90748FCF7ABFE4FF417
:1054500080730193029401A90448FCF7A3FE06B0EF
:1054600010BD00BF000C02400000024000100240CE
:10547000034B53F82030034A32F810201A83704748
:1054800004000020484B0108034B53F82030034A26
:1054900032F810205A83704704000020484B01085E
:1054A00039B9084B53F82030074A32F810205A8394
:1054B0007047044B53F82030034A32F810201A8307
:1054C000704700BF04000020484B0108044B53F80C
:1054D00020205369034931F810104B405361704745
:1054E00004000020484B01082DE9F0418AB0304DFE
:1054F0002B6B43F004032B632B6B43F008032B63EC
:105500004FF440430593012606960024079405A90D
:105510002848FCF747FE4FF40048CDF81480069663
:10552000254F05A93846FCF73DFE4FF44073009324
:105530000223019303220392049369461F48FCF758
:1055400031FE2B6C43F002032B641D4D1D4B2B6071
:105550006C60AC6041F26703EB602C61284605F09B
:1055600077FA194E602333604FF48073736174606F
:10557000B4600423336108223146284605F066FBF7
:105580000C223146284605F061FB0821284605F02B
:10559000EFFE0C21284605F0EBFEA7F818800B4A19
:1055A00014600B4B1C6014711C710AB0BDE8F081D3
:1055B00000380240000C0240000402400008024093
:1055C000C80A002000040040040B0020B80A002094
:1055D000C00A002010B5104B1960187120B94FF4A3
:1055E00080420E4B5A8303E04FF480420B4B1A83E8
:1055F0000B480C4CE36803FB01F30B49A1FB0323AD
:105600005B09436008220146204605F01FFB082184
:10561000204605F0ADFE10BDB80A0020000C024087
:10562000040B0020C80A00201F85EB5110B5104B59
:105630001960187120B94FF400420E4B5A8303E0F1
:105640004FF400420B4B1A830B480C4CE36803FBEE
:1056500001F30B49A1FB03235B0943600C220146C4
:10566000204605F0F3FA0C21204605F081FE10BD1E
:10567000C00A0020000C0240040B0020C80A0020D1
:105680001F85EB5170B50D4E002575600C4C08223E
:105690003146204605F0DAFA0C223146204605F064
:1056A000D5FA0821204605F063FE0C21204605F0BE
:1056B0005FFE044B1D60044B1D6070BD040B002099
:1056C000C80A0020B80A0020C00A0020014B186850
:1056D000704700BFB80A0020014B1868704700BF30
:1056E000C00A002008B50146024B18601879FFF780
:1056F00071FF08BDB80A002008B50146024B1860CA
:105700001879FFF793FF08BDC00A00200A4B1B68F9
:1057100013F0200F0ED0094B1B78092B07D8064A2F
:105720005168074AD1540133044A1370704700226C
:10573000024B1A70704700BF00480040100900205B
:10574000200B002008B5054B1B6813F0200F04D078
:10575000024B5868C0B208F00FF908BD004C004079
:105760002DE9F04387B081460E46174698461B4CFC
:10577000236B43F0020323634FF44063019302233E
:1057800002930025039504930723059301A9144868
:10579000FCF708FD236C43F480232364114C124B67
:1057A0002360C4F804900E9BA360C4F80C802761AA
:1057B0006661A561204603F0A3F92268D36843F02F
:1057C0002003D36001222946272007F033FD27203C
:1057D00007F062FD07B0BDE8F08300BF003802406B
:1057E00000040240680B0020004800402DE9F0430F
:1057F00087B081460E46174698461B4C236B43F0F4
:10580000040323634FF440630193022302930025B2
:10581000039504930823059301A91448FCF7C2FCDF
:10582000236C43F400232364114C124B2360C4F80F
:1058300004900E9BA360C4F80C8027616661A5618B
:10584000204603F05DF92268D36843F02003D3605B
:1058500001222946342007F0EDFC342007F01CFD1E
:1058600007B0BDE8F08300BF0038024000080240E6
:105870002C0B0020004C0040036813F0800FFBD07D
:105880004160036813F0800FFBD0704710B5054CE2
:1058900021460AF0B3FF0023236063602381024A9C
:1058A000137010BD200B0020100900204068C0B20A
:1058B000704700BF0A440AE0036813F0800FFBD072
:1058C00011F8013B4360036813F0800FFBD0914255
:1058D000F2D17047013908E0036813F0800FFBD064
:1058E0004260036813F0800FFBD011F8012F002AEB
:1058F000F2D1704770B584B006460C46124A01AB2F
:1059000010685168926807C32246104901A80AF03E
:10591000DDFD01AC2146002300E0134611F8010B28
:105920005A1C632802D1013B03D10BE00C2AF4D1AD
:10593000F9E701AAD51814F8011B3046FFF79CFFC0
:10594000AC42F8D104B070BD544B0108304B010893
:1059500070B584B006460C46124A01AB1068516817
:10596000926807C32246104901A80AF0AFFD01ACB6
:105970002146002300E0134611F8010B5A1C63284E
:1059800002D1013B03D10BE00C2AF4D1F9E701AAC3
:10599000D51814F8011B3046FFF76EFFAC42F8D162
:1059A00004B070BD544B0108604B010870B584B061
:1059B0000646154A01AB10685168926807C310EE9D
:1059C000100A0AF09DF902460B46104901A80AF098
:1059D0007DFD01AC2146002300E0134611F8010BC8
:1059E0005A1C632802D1013B03D10BE00C2AF4D1ED
:1059F000F9E701AAD51814F8011B3046FFF73CFF60
:105A0000AC42F8D104B070BD544B0108644B01089E
:105A1000002831D010B40346022280F835200468F3
:105A20002168184A0A40406899680843D9680843C1
:105A3000196908435969084399690843D9690843B2
:105A4000196A01430A43596A042903D1D86A196BB8
:105A500001430A43226019684A6922F00702586A22
:105A60000243042804BF986A02434A610020D864B4
:105A7000012283F8352001E0012070475DF8044BD6
:105A8000704700BF3F8014F00346002800F0878372
:105A900090F83520D2B2022A00F0838301680A68A8
:105AA00022F001020A60016800220A6001684A606F
:105AB00001688A600168CA6001680A610268212180
:105AC00051610268A7498A4228D922F48062A1F56F
:105AD00089618A4213D060318A4212D048398A42A1
